{
  "contractName": "supplyChain",
  "abi": [
    {
      "anonymous": false,
      "inputs": [
        {
          "indexed": false,
          "internalType": "string",
          "name": "info",
          "type": "string"
        }
      ],
      "name": "Info",
      "type": "event"
    },
    {
      "anonymous": false,
      "inputs": [
        {
          "indexed": false,
          "internalType": "uint256",
          "name": "id",
          "type": "uint256"
        },
        {
          "indexed": false,
          "internalType": "address",
          "name": "owner",
          "type": "address"
        },
        {
          "indexed": false,
          "internalType": "string",
          "name": "name",
          "type": "string"
        },
        {
          "indexed": false,
          "internalType": "uint256",
          "name": "currentLocation",
          "type": "uint256"
        },
        {
          "indexed": false,
          "internalType": "uint256",
          "name": "date",
          "type": "uint256"
        }
      ],
      "name": "ProductAdded",
      "type": "event"
    },
    {
      "anonymous": false,
      "inputs": [
        {
          "indexed": false,
          "internalType": "uint256",
          "name": "id",
          "type": "uint256"
        },
        {
          "indexed": false,
          "internalType": "string",
          "name": "currentLocation",
          "type": "string"
        }
      ],
      "name": "locationChanged",
      "type": "event"
    },
    {
      "constant": true,
      "inputs": [
        {
          "internalType": "uint256",
          "name": "",
          "type": "uint256"
        }
      ],
      "name": "Products",
      "outputs": [
        {
          "internalType": "uint256",
          "name": "id",
          "type": "uint256"
        },
        {
          "internalType": "address",
          "name": "owner",
          "type": "address"
        },
        {
          "internalType": "string",
          "name": "name",
          "type": "string"
        },
        {
          "internalType": "uint256",
          "name": "currentLocation",
          "type": "uint256"
        },
        {
          "internalType": "uint256",
          "name": "date",
          "type": "uint256"
        }
      ],
      "payable": false,
      "stateMutability": "view",
      "type": "function"
    },
    {
      "constant": true,
      "inputs": [],
      "name": "productCount",
      "outputs": [
        {
          "internalType": "uint256",
          "name": "",
          "type": "uint256"
        }
      ],
      "payable": false,
      "stateMutability": "view",
      "type": "function"
    },
    {
      "constant": false,
      "inputs": [
        {
          "internalType": "string",
          "name": "_name",
          "type": "string"
        }
      ],
      "name": "addProduct",
      "outputs": [
        {
          "internalType": "bool",
          "name": "",
          "type": "bool"
        }
      ],
      "payable": false,
      "stateMutability": "nonpayable",
      "type": "function"
    },
    {
      "constant": false,
      "inputs": [
        {
          "internalType": "string",
          "name": "_location",
          "type": "string"
        },
        {
          "internalType": "uint256",
          "name": "_id",
          "type": "uint256"
        },
        {
          "internalType": "address",
          "name": "_new_owner",
          "type": "address"
        }
      ],
      "name": "changeLocation",
      "outputs": [],
      "payable": false,
      "stateMutability": "nonpayable",
      "type": "function"
    },
    {
      "constant": true,
      "inputs": [
        {
          "internalType": "uint256",
          "name": "_id",
          "type": "uint256"
        }
      ],
      "name": "fetchInfo",
      "outputs": [
        {
          "internalType": "string",
          "name": "",
          "type": "string"
        }
      ],
      "payable": false,
      "stateMutability": "view",
      "type": "function"
    },
    {
      "constant": true,
      "inputs": [
        {
          "internalType": "uint256",
          "name": "_id",
          "type": "uint256"
        }
      ],
      "name": "fetchAddress",
      "outputs": [
        {
          "internalType": "address",
          "name": "",
          "type": "address"
        }
      ],
      "payable": false,
      "stateMutability": "view",
      "type": "function"
    },
    {
      "constant": true,
      "inputs": [
        {
          "internalType": "uint256",
          "name": "_id",
          "type": "uint256"
        }
      ],
      "name": "fetchAllLocation",
      "outputs": [
        {
          "internalType": "string[15]",
          "name": "",
          "type": "string[15]"
        }
      ],
      "payable": false,
      "stateMutability": "view",
      "type": "function"
    }
  ],
  "bytecode": "0x60806040526000805534801561001457600080fd5b50611372806100246000396000f3fe608060405234801561001057600080fd5b506004361061007d5760003560e01c8063dba3f6aa1161005b578063dba3f6aa146100fe578063dfe00c5114610132578063e0f6ef8714610162578063f6126cf3146101805761007d565b80630a5eb46c14610082578063618ff2091461009e578063ce83953d146100ce575b600080fd5b61009c60048036036100979190810190610d15565b6101b0565b005b6100b860048036036100b39190810190610d7c565b6103bf565b6040516100c59190610fdc565b60405180910390f35b6100e860048036036100e39190810190610d7c565b610404565b6040516100f59190610ff7565b60405180910390f35b61011860048036036101139190810190610d7c565b610528565b6040516101299594939291906110cb565b60405180910390f35b61014c60048036036101479190810190610cd4565b610616565b6040516101599190611019565b60405180910390f35b61016a61075a565b6040516101779190611056565b60405180910390f35b61019a60048036036101959190810190610d7c565b610760565b6040516101a79190611034565b60405180910390f35b816001600082815260200190815260200160002060010160009054906101000a900473ffffffffffffffffffffffffffffffffffffffff1673ffffffffffffffffffffffffffffffffffffffff163373ffffffffffffffffffffffffffffffffffffffff161461021f57600080fd5b6000600160008581526020019081526020016000209050806003016000815480929190600101919050555084816005016000836003015481526020019081526020016000209080519060200190610277929190610a82565b50828160010160006101000a81548173ffffffffffffffffffffffffffffffffffffffff021916908373ffffffffffffffffffffffffffffffffffffffff1602179055508060016000868152602001908152602001600020600082015481600001556001820160009054906101000a900473ffffffffffffffffffffffffffffffffffffffff168160010160006101000a81548173ffffffffffffffffffffffffffffffffffffffff021916908373ffffffffffffffffffffffffffffffffffffffff16021790555060028201816002019080546001816001161561010002031660029004610367929190610b02565b5060038201548160030155600482015481600401559050507f136456627f0fdcbc663467816d140d084ef4efabd82daf4458bcee9b5d48652584866040516103b0929190611125565b60405180910390a15050505050565b6000806001600084815260200190815260200160002060010160009054906101000a900473ffffffffffffffffffffffffffffffffffffffff16905080915050919050565b61040c610b89565b60006001600084815260200190815260200160002060030154905061042f610b89565b60008090505b82811161051d576001600086815260200190815260200160002060050160008281526020019081526020016000208054600181600116156101000203166002900480601f0160208091040260200160405190810160405280929190818152602001828054600181600116156101000203166002900480156104f75780601f106104cc576101008083540402835291602001916104f7565b820191906000526020600020905b8154815290600101906020018083116104da57829003601f168201915b50505050508282600f811061050857fe5b60200201819052508080600101915050610435565b508092505050919050565b60016020528060005260406000206000915090508060000154908060010160009054906101000a900473ffffffffffffffffffffffffffffffffffffffff1690806002018054600181600116156101000203166002900480601f0160208091040260200160405190810160405280929190818152602001828054600181600116156101000203166002900480156106005780601f106105d557610100808354040283529160200191610600565b820191906000526020600020905b8154815290600101906020018083116105e357829003601f168201915b5050505050908060030154908060040154905085565b60008082511161062557600080fd5b60008081548092919060010191905055506040518060a0016040528060005481526020013373ffffffffffffffffffffffffffffffffffffffff168152602001838152602001600081526020014281525060016000805481526020019081526020016000206000820151816000015560208201518160010160006101000a81548173ffffffffffffffffffffffffffffffffffffffff021916908373ffffffffffffffffffffffffffffffffffffffff16021790555060408201518160020190805190602001906106f7929190610bb1565b5060608201518160030155608082015181600401559050507f9d19a1275b5cd25f1a18c08dc005b2ef4e5c26bc01e1af7dea4f6dc87bc39b5d6000543384600042604051610749959493929190611071565b60405180910390a160019050919050565b60005481565b60608061090f600160008581526020019081526020016000206002018054600181600116156101000203166002900480601f0160208091040260200160405190810160405280929190818152602001828054600181600116156101000203166002900480156108105780601f106107e557610100808354040283529160200191610810565b820191906000526020600020905b8154815290600101906020018083116107f357829003601f168201915b5050505050600160008681526020019081526020016000206005016000600160008881526020019081526020016000206003015481526020019081526020016000208054600181600116156101000203166002900480601f0160208091040260200160405190810160405280929190818152602001828054600181600116156101000203166002900480156108e65780601f106108bb576101008083540402835291602001916108e6565b820191906000526020600020905b8154815290600101906020018083116108c957829003601f168201915b505050505061090a600160008881526020019081526020016000206004015461091a565b610a53565b905080915050919050565b60606000821415610962576040518060400160405280600181526020017f30000000000000000000000000000000000000000000000000000000000000008152509050610a4e565b600082905060005b6000821461098c578080600101915050600a828161098457fe5b04915061096a565b6060816040519080825280601f01601f1916602001820160405280156109c15781602001600182028038833980820191505090505b50905060008290505b60008614610a46576001810390506000600a8088816109e557fe5b04028703603001905060008160f81b905080848481518110610a0357fe5b60200101907effffffffffffffffffffffffffffffffffffffffffffffffffffffffffffff1916908160001a905350600a8881610a3c57fe5b04975050506109ca565b819450505050505b919050565b6060838383604051602001610a6a93929190610f95565b60405160208183030381529060405290509392505050565b828054600181600116156101000203166002900490600052602060002090601f016020900481019282601f10610ac357805160ff1916838001178555610af1565b82800160010185558215610af1579182015b82811115610af0578251825591602001919060010190610ad5565b5b509050610afe9190610c31565b5090565b828054600181600116156101000203166002900490600052602060002090601f016020900481019282601f10610b3b5780548555610b78565b82800160010185558215610b7857600052602060002091601f016020900482015b82811115610b77578254825591600101919060010190610b5c565b5b509050610b859190610c31565b5090565b604051806101e00160405280600f905b6060815260200190600190039081610b995790505090565b828054600181600116156101000203166002900490600052602060002090601f016020900481019282601f10610bf257805160ff1916838001178555610c20565b82800160010185558215610c20579182015b82811115610c1f578251825591602001919060010190610c04565b5b509050610c2d9190610c31565b5090565b610c5391905b80821115610c4f576000816000905550600101610c37565b5090565b90565b600081359050610c6581611301565b92915050565b600082601f830112610c7c57600080fd5b8135610c8f610c8a82611182565b611155565b91508082526020830160208301858383011115610cab57600080fd5b610cb68382846112ae565b50505092915050565b600081359050610cce81611318565b92915050565b600060208284031215610ce657600080fd5b600082013567ffffffffffffffff811115610d0057600080fd5b610d0c84828501610c6b565b91505092915050565b600080600060608486031215610d2a57600080fd5b600084013567ffffffffffffffff811115610d4457600080fd5b610d5086828701610c6b565b9350506020610d6186828701610cbf565b9250506040610d7286828701610c56565b9150509250925092565b600060208284031215610d8e57600080fd5b6000610d9c84828501610cbf565b91505092915050565b6000610db18383610ed4565b905092915050565b610dc281611266565b82525050565b610dd18161121e565b82525050565b6000610de2826111b8565b610dec81856111e6565b935083602082028501610dfe856111ae565b8060005b85811015610e3a5784840389528151610e1b8582610da5565b9450610e26836111d9565b925060208a01995050600181019050610e02565b50829750879550505050505092915050565b610e5581611230565b82525050565b610e6481611278565b82525050565b6000610e75826111ce565b610e7f8185611202565b9350610e8f8185602086016112bd565b610e98816112f0565b840191505092915050565b6000610eae826111ce565b610eb88185611213565b9350610ec88185602086016112bd565b80840191505092915050565b6000610edf826111c3565b610ee981856111f1565b9350610ef98185602086016112bd565b610f02816112f0565b840191505092915050565b6000610f18826111c3565b610f228185611202565b9350610f328185602086016112bd565b610f3b816112f0565b840191505092915050565b6000610f53600183611213565b91507f2c000000000000000000000000000000000000000000000000000000000000006000830152600182019050919050565b610f8f8161125c565b82525050565b6000610fa18286610ea3565b9150610fac82610f46565b9150610fb88285610ea3565b9150610fc382610f46565b9150610fcf8284610ea3565b9150819050949350505050565b6000602082019050610ff16000830184610dc8565b92915050565b600060208201905081810360008301526110118184610dd7565b905092915050565b600060208201905061102e6000830184610e4c565b92915050565b6000602082019050818103600083015261104e8184610e6a565b905092915050565b600060208201905061106b6000830184610f86565b92915050565b600060a0820190506110866000830188610f86565b6110936020830187610db9565b81810360408301526110a58186610e6a565b90506110b46060830185610e5b565b6110c16080830184610f86565b9695505050505050565b600060a0820190506110e06000830188610f86565b6110ed6020830187610dc8565b81810360408301526110ff8186610f0d565b905061110e6060830185610f86565b61111b6080830184610f86565b9695505050505050565b600060408201905061113a6000830185610f86565b818103602083015261114c8184610e6a565b90509392505050565b6000604051905081810181811067ffffffffffffffff8211171561117857600080fd5b8060405250919050565b600067ffffffffffffffff82111561119957600080fd5b601f19601f8301169050602081019050919050565b6000819050919050565b6000600f9050919050565b600081519050919050565b600081519050919050565b6000602082019050919050565b600081905092915050565b600082825260208201905092915050565b600082825260208201905092915050565b600081905092915050565b60006112298261123c565b9050919050565b60008115159050919050565b600073ffffffffffffffffffffffffffffffffffffffff82169050919050565b6000819050919050565b60006112718261128a565b9050919050565b60006112838261125c565b9050919050565b60006112958261129c565b9050919050565b60006112a78261123c565b9050919050565b82818337600083830152505050565b60005b838110156112db5780820151818401526020810190506112c0565b838111156112ea576000848401525b50505050565b6000601f19601f8301169050919050565b61130a8161121e565b811461131557600080fd5b50565b6113218161125c565b811461132c57600080fd5b5056fea365627a7a72315820a0ba411125c97f8fe00f343cda8ea5ff102f2934cb5203612636674282c5054e6c6578706572696d656e74616cf564736f6c63430005100040",
  "source": "pragma experimental ABIEncoderV2;\r\npragma solidity ^0.5.0;\r\n\r\ncontract supplyChain {\r\n\r\n    //utility functions\r\n       function uint2str(uint _i) internal pure returns (string memory _uintAsString) {\r\n        if (_i == 0) {\r\n            return \"0\";\r\n        }\r\n        uint j = _i;\r\n        uint len;\r\n        while (j != 0) {\r\n            len++;\r\n            j /= 10;\r\n        }\r\n        bytes memory bstr = new bytes(len);\r\n        uint k = len;\r\n        while (_i != 0) {\r\n            k = k-1;\r\n            uint8 temp = (48 + uint8(_i - _i / 10 * 10));\r\n            bytes1 b1 = bytes1(temp);\r\n            bstr[k] = b1;\r\n            _i /= 10;\r\n        }\r\n        return string(bstr);\r\n    }\r\n\r\n      function append(string memory a, string memory b, string memory c) internal pure returns (string memory) {\r\n\r\n    return string(abi.encodePacked(a, ',', b, ',', c));\r\n\r\n}\r\n\r\n    ////////variables\r\n   uint256 public productCount =0;\r\n\r\n   mapping(uint256 => Product) public Products;\r\n\r\n    struct Product {\r\n        uint256 id;\r\n        address owner;\r\n        string name;\r\n        uint256 currentLocation;\r\n        uint256 date;\r\n        mapping(uint256 => string) Locations;\r\n    }\r\n\r\n    //////////////events\r\n    event ProductAdded( uint256 id,\r\n        address owner,\r\n        string name,\r\n        uint currentLocation,\r\n        uint256 date);\r\n\r\n    event locationChanged(uint256 id, \r\n     string currentLocation);\r\n\r\n    event Info( string info);\r\n\r\n    //////modifiers\r\n    modifier owner_only(uint _id){\r\n        require(msg.sender == Products[_id].owner);\r\n        _;\r\n    }\r\n    /////main methods\r\n    function addProduct(string memory _name)  public returns (bool){\r\n\r\n        require( bytes(_name).length > 0);\r\n        productCount++;\r\n        Products[productCount] = Product(productCount , msg.sender, _name, 0,block.timestamp);\r\n\r\n        emit ProductAdded(productCount , msg.sender,_name, 0,block.timestamp);\r\n        return true;\r\n    }\r\n\r\n    function changeLocation( string memory _location  , uint256 _id, address _new_owner) public owner_only(_id){\r\n\r\n         Product storage  _product = Products[_id];\r\n         _product.currentLocation++;\r\n         _product.Locations[_product.currentLocation] = _location;\r\n         _product.owner = _new_owner;\r\n         Products[_id] = _product;\r\n\r\n         emit locationChanged( _id, \r\n     _location);\r\n\r\n    }\r\n\r\n    function fetchInfo( uint256  _id)public view returns(string memory) {\r\n\r\n        string memory _info  = append(\r\n            Products[_id].name,\r\n            Products[_id].Locations[Products[_id].currentLocation],\r\n           uint2str(Products[_id].date));\r\n        return _info;\r\n    }\r\n\r\n     function fetchAddress( uint _id) public view returns (address){\r\n        \r\n        address str = Products[_id].owner;\r\n        return str;\r\n    }\r\n\r\n    function fetchAllLocation( uint _id) public view returns (string[15] memory){\r\n        uint cLocat = Products[_id].currentLocation;\r\n        string[15] memory temp;\r\n        for( uint i = 0 ; i <=cLocat;i++){\r\n            temp[i] = Products[_id].Locations[i];\r\n        }\r\n        return temp;\r\n    }\r\n}",
  "sourcePath": "C:/Users/91999/Downloads/supplyChain/supplyChain/src/contracts/supplyChain.sol",
  "compiler": {
    "name": "solc",
    "version": "0.5.16+commit.9c3226ce.Emscripten.clang"
  },
  "schemaVersion": "3.2.3",
  "updatedAt": "2021-06-16T05:54:21.093Z",
  "devdoc": {
    "methods": {}
  },
  "userdoc": {
    "methods": {
      "addProduct(string)": {
        "notice": "//main methods"
      }
    }
  }
}